:100000000C9434000C9451000C9451000C94510049
:100010000C9451000C9451000C9451000C9451001C
:100020000C9451000C9451000C9451000C9451000C
:100030000C9451000C9451000C9451000C945100FC
:100040000C9451000C9451000C9451000C945100EC
:100050000C9451000C9451000C9451000C945100DC
:100060000C9451000C94510011241FBECFEFD8E026
:10007000DEBFCDBF11E0A0E0B1E0E8ECF4E002C0EB
:1000800005900D92A031B107D9F721E0A0E1B1E0D0
:1000900001C01D92A431B207E1F70E9497010C94B0
:1000A00062020C94000027E030E019C0482F50E0B5
:1000B000022E02C0559547950A94E2F740FF04C00E
:1000C00095B1916095B903C095B19E7F95B995B1F1
:1000D000986095B995B1977F95B92150310933232F
:1000E0002CF785B1806185B985B18F7E85B908957A
:1000F00099B1892F8F7120911101821721F091E020
:10010000909310015AC020911001222309F455C088
:10011000215020931001211150C092FD17C0209151
:100120000101309102012F5F3F4F30930201209374
:10013000010120910101309102012536310534F091
:1001400024E630E0309302012093010193FD14C0B6
:1001500020910101309102012150310930930201B7
:10016000209301012091010130910201332324F4F5
:10017000109202011092010194FD07C0309100011C
:1001800021E0311120E02093000191FD0DC020916C
:100190000101309102012932310534F021E0209330
:1001A000130125B12F7D25B990FD07C020911201C3
:1001B00091E0211190E09093120180931101089534
:1001C0009C01220F331F220F331F220F331F820F78
:1001D000931F65E070E00E943A02CB01809608957B
:1001E0008AB18F798AB984B1897F84B98BB18F79CB
:1001F0008BB985B1897F85B908950E94F0008091FF
:100200000101909102010F978CF483E284BD82E09A
:1002100085BD8AB180628AB9809101019091020105
:1002200091E1899F802D112488BD0895809101015D
:10023000909102010F97D4F08091010190910201F9
:100240004A97A4F483EA84BD82E085BD8AB18066C2
:100250008AB98FEF88BD80910101909102010F97BB
:1002600099E1899F802D112487BD08958091010116
:10027000909102014A974CF1809101019091020105
:1002800083971CF583EA84BD82E085BD8AB18066D0
:100290008AB981E8809380008AE08093810084B1EC
:1002A000826084B98FEF88BD87BD809101019091F4
:1002B0000201499749E1489F9001499F300D11245F
:1002C00030938900209388000895809101019091D6
:1002D000020183975CF183EA84BD82E085BD8AB127
:1002E00080668AB981EA809380008AE080938100E9
:1002F00084B1866084B98FEF88BD87BD8FEF90E0B1
:10030000909389008093880080910101909102016F
:1003100083979C01220F331F820F931F880F991F11
:10032000880F991F90938B0080938A000895CF9334
:10033000DF9300D000D0CDB7DEB784B1896184B936
:1003400087B18F6087B98AB1807E8AB98BB18F619E
:100350008BB984B1806284B98AB180688AB985B169
:100360008F7D85B90E94780080910001882339F043
:1003700020910101309102018AE08C8309C08091B3
:100380000101909102010E94E0009C018BE08C83AE
:1003900033232CF410920201109201010BC0C90109
:1003A00064E670E00E943A02CB016AE070E00E94CD
:1003B0003A028983EAE0F0E0C901BF010E943A02F3
:1003C000282FCB01BF010E943A028A832B838091A0
:1003D0001201811138C00E94F0008BB18F778BB968
:1003E00000E010E02CC088B18F6088B9E1E0F0E057
:1003F000EC0FFD1FEE0DFF1DE081F0E0ED5FFE4F05
:1004000080810E94530028B181E090E00E2C02C050
:10041000880F991F0A94E2F78095822388B985E0B6
:100420008A95F1F700008FEFE81AF80A02C0E12C74
:10043000F12C84E0E816F104B4F20F5F1F4F043191
:100440001105ACF305C08BB180688BB90E94FD002B
:100450008091130181110AC08091010190910201E4
:10046000899724F085B1806285B97CCF85B18F7D75
:1004700085B978CF97FB072E16F4009407D077FD47
:1004800009D00E944E0207FC05D03EF4909581955C
:100490009F4F0895709561957F4F0895AA1BBB1BD0
:1004A00051E107C0AA1FBB1FA617B70710F0A61B74
:1004B000B70B881F991F5A95A9F780959095BC0195
:0804C000CD010895F894FFCF6F
:1004C800010F003F305B79746D6F387F7D8FCE00F0
:00000001FF
